:100000000C9464000C948C000C948C000C948C0068
:100010000C948C000C948C000C948C000C94BD05FA
:100020000C948C000C948C000C948C000C948C0020
:100030000C948C000C948C000C948C000C948C0010
:100040000C9471060C948C000C943F060C941906C9
:100050000C948C000C948C000C948C000C948C00F0
:100060000C948C000C948C000000000024002700ED
:100070002A000000000023002600290000000008DC
:10008000000201000003040700000000000000005F
:10009000010204081020408001020408102001021F
:1000A0000408102000000000250028002B00040494
:1000B0000404040404040202020202020303030310
:1000C00003030200BB06460911241FBECFEFD8E090
:1000D000DEBFCDBF23E0AEE4B2E001C01D92A73287
:1000E000B207E1F712E0A0E0B1E0EAEAF7E102C00E
:1000F00005900D92AE34B107D9F710E0C3E6D0E019
:1001000004C02197FE010E94C709C236D107C9F772
:100110000E945B070C94C80B0C940000AF92BF9236
:10012000CF92DF92EF92FF920F931F93CF93DF93C3
:100130006C017B018B01040F151FEB015E01AE18F2
:10014000BF08C017D10759F06991D601ED91FC9114
:100150000190F081E02DC6010995892B79F7C50141
:10016000DF91CF911F910F91FF90EF90DF90CF9093
:10017000BF90AF900895FC01538D448D252F30E042
:10018000842F90E0821B930B541710F0CF960895A4
:1001900001970895FC01918D828D981761F0A28DD1
:1001A000AE0FBF2FB11D5D968C91928D9F5F9F7397
:1001B000928F90E008958FEF9FEF0895FC01918D4D
:1001C000828D981731F0828DE80FF11D858D90E0BA
:1001D00008958FEF9FEF0895FC01918D228D892F57
:1001E00090E0805C9F4F821B91098F73992708953F
:1001F00088E692E00E94EC0021E0892B09F420E0DF
:10020000822F089580E090E0892B29F00E94F80069
:1002100081110C9400000895FC01A48DA80FB92F42
:10022000B11DA35ABF4F2C91848D90E001968F731E
:100230009927848FA689B7892C93A089B1898C913D
:10024000837080648C93938D848D981306C002888C
:10025000F389E02D80818F7D80830895EF92FF9256
:100260000F931F93CF93DF93EC0181E0888F9B8DD9
:100270008C8D98131AC0E889F989808185FF15C093
:100280009FB7F894EE89FF896083E889F9898081B6
:100290008370806480839FBF81E090E0DF91CF9185
:1002A0001F910F91FF90EF900895F62E0B8D10E0A7
:1002B0000F5F1F4F0F731127E02E8C8D8E110CC016
:1002C0000FB607FCFACFE889F989808185FFF5CF61
:1002D000CE010E940C01F1CFEB8DEC0FFD2FF11D33
:1002E000E35AFF4FF0829FB7F8940B8FEA89FB899E
:1002F00080818062CFCFCF93DF93EC01888D8823FC
:10030000B9F0AA89BB89E889F9898C9185FD03C078
:10031000808186FD0DC00FB607FCF7CF8C9185FF5D
:10032000F2CF808185FFEDCFCE010E940C01E9CF95
:10033000DF91CF910895833081F028F4813099F0D6
:100340008230A9F008958730A9F08830C9F0843050
:10035000B1F4809180008F7D03C0809180008F7701
:1003600080938000089584B58F7784BD089584B507
:100370008F7DFBCF8091B0008F778093B000089580
:100380008091B0008F7DF9CFCF93DF93E3E8F0E069
:100390008491E7E9F0E0D491E5EBF0E0C491CC235F
:1003A000A1F081110E949B01EC2FF0E0EE0FFF1FE6
:1003B000EE58FF4FA591B491EC91ED2381E090E0D0
:1003C00009F480E0DF91CF91089580E090E0FACFCA
:1003D0001F93CF93DF93282F30E0F901E458FF4FAC
:1003E0008491F901E057FF4FD491F901E255FF4F95
:1003F000C491CC23A9F0162F81110E949B01EC2FF0
:10040000F0E0EE0FFF1FEC55FF4FA591B4918FB7B1
:10041000F894EC91111108C0D095DE23DC938FBFC6
:10042000DF91CF911F910895DE2BF8CF90910001BD
:1004300089130BC0E2ECF0E0E4919FEF9093000190
:10044000E13049F028F0E23061F060E00C94E8011E
:1004500010926E00FACF90916F009D7F90936F0085
:10046000F4CF909170009D7F9093700091E09093F5
:10047000B0009091B100987F94609093B100109279
:10048000B300E3CFCF93DF9390E0FC01E057FF4F41
:10049000249182559F4FFC0184918823D1F090E0F4
:1004A000880F991FFC01E859FF4FA591B491FC01F9
:1004B000EC55FF4FC591D49161110EC09FB7F894D0
:1004C0008C91E22FE0958E238C932881E223E883A0
:1004D0009FBFDF91CF9108958FB7F894EC91E22BF5
:1004E000EC938FBFF6CFCF92DF92EF92FF92CF9334
:1004F0006C01809100018A3049F08F3F09F44FC0B0
:10050000CF91FF90EF90DF90CF900895E2ECF0E074
:10051000C491C7FDF5CF61E08AE00E944202CC237E
:1005200019F0C23009F0D9C0F12CE12C68E478EE62
:1005300081E090E0A70196010E948609BA01A90115
:100540004150510961097109CC2309F406C1C23037
:1005500009F094C04F3F51056105710509F00CF495
:10056000BAC064E274EF80E090E0A70196010E94B7
:100570008609BA01A901415051096109710995E043
:100580008091B100887F892B8093B100C13009F43C
:10059000BCC0C23009F4CEC0C111B2CF8AC08AE05B
:1005A00080930001E2ECF0E0C491CF3F09F4A8CFC2
:1005B000C13021F150F0C23009F43EC0C7FDA0CFD8
:1005C00061E08AE00E944202ACCF14BC15BC84B545
:1005D000826084BD85B5816085BDE8EBF0E0E49183
:1005E000F0E0EE0FFF1FEC55FF4F85919491EAE983
:1005F000F0E0E491E0935B02C0E08DCF10928000C8
:1006000010928100809181008860809381008091A8
:100610008100816080938100E8EBF0E0E491F0E0FC
:10062000EE0FFF1FEC55FF4F85919491EAE9F0E042
:10063000E491E0935A026FCF1092B0001092B10093
:100640008091B00082608093B0008091B1008160A1
:100650008093B100E8EBF0E0E491F0E0EE0FFF1FD3
:10066000EC55FF4F859194919093590280935802D5
:10067000EAE9F0E0E491E09357024DCF4F3F510596
:100680006105710541F13CF162E17AE780E090E0BB
:10069000A70196010E948609BA01A901415051099A
:1006A00061097109C11162C094E085B5887F892B09
:1006B00085BD47BD8FEF9FEFDC018093640290936F
:1006C0006502A0936602B093670280916E0082601B
:1006D00080936E0015CF94E053CF960150E040E038
:1006E00060E072E18AE790E00E948609BA01A90100
:1006F0004150510961097109C13009F047CF80911A
:100700008100887F816080938100509389004093AD
:1007100088008FEF9FEFDC0180936002909361026D
:10072000A0936202B093630280916F008260809315
:100730006F00E6CE4093B3008FEF9FEFDC01809314
:100740005C0290935D02A0935E02B0935F02809181
:100750007000826080937000D3CE93E04F3F5105CC
:100760006105710511F00CF08FCF9FCF96E008CF97
:100770003FB7F8948091530290915402A091550292
:10078000B091560226B5A89B05C02F3F19F00196DF
:10079000A11DB11D3FBFBA2FA92F982F8827BC01DB
:1007A000CD01620F711D811D911D42E0660F771F03
:1007B000881F991F4A95D1F708958F929F92AF9203
:1007C000BF92CF92DF92EF92FF924B015C010E94A9
:1007D000B8036B017C010E94B8036C197D098E0976
:1007E0009F09683E734081059105A8F321E0821AB4
:1007F0009108A108B10888EEC80E83E0D81EE11C5C
:10080000F11C81149104A104B10429F7FF90EF9029
:10081000DF90CF90BF90AF909F908F9008950895F4
:1008200090E080E00895CF93DF93EC0160E08E814B
:100830000E94E80161E08E810E94E80160E08E8103
:100840000E94E8018BE891E00197F1F7DF91CF91E9
:100850000895CF92DF92EF92FF920F931F93CF9361
:10086000DF936C017C0187E0E80EF11CD0E0C0E072
:10087000062F10E0B8010C2E02C0759567950A94FA
:10088000E2F76170F70181917F010E94E8012196F2
:10089000C430D10579F7C601DF91CF911F910F9137
:1008A000FF90EF90DF90CF900C941304CF92DF92E3
:1008B000EF92FF920F931F93CF93DF93EC01F62EED
:1008C000642F8C810E94E8018D818F3F19F060E0D8
:1008D0000E94E8010F2D10E08F8584FF25C06E0176
:1008E00087E0C80ED11CF12CE12CB8010E2C02C0FF
:1008F000759567950A94E2F76170F60181916F0131
:100900000E94E801FFEFEF1AFF0A88E0E816F10401
:1009100061F7CE01DF91CF911F910F91FF90EF9082
:10092000DF90CF900C941304B80184E0759567951F
:100930008A95E1F7CE010E9429046F2DCE01DF9147
:10094000CF911F910F91FF90EF90DF90CF900C947B
:10095000290440E0682F8BE093E00C945604CF9379
:10096000DF93823029F490911A03986090931A03D0
:1009700080931E0310921F0380E48093200380E184
:100980008093210380E58093220361E080910F032F
:100990000E944202809110038F3F19F061E00E9493
:1009A000420261E0809111030E944202CBE0D3E059
:1009B0009E012B50334080911A0384FD0BC084E0CC
:1009C00090E021962817390744F461E08E810E9457
:1009D0004202EECF88E090E0F4CF8BE39DE00197F8
:1009E000F1F760E080910F030E94E80160E08091E0
:1009F00011030E94E801809110038F3F19F060E01D
:100A00000E94E80180911A0384FD39C063E08BE005
:100A100093E00E942904CBE4D6E4CE010197F1F7DC
:100A200063E08BE093E00E9429042197F1F763E0F3
:100A30008BE093E00E94290483E592E00197F1F7AF
:100A400062E08BE093E00E94290480911A038062A7
:100A50000E94A90484E080931B038CE00E94A904F7
:100A600081E00E94A9048BE39FE10197F1F782E006
:100A700080931C0386E0DF91CF910C94A9048062DF
:100A80000E94A9048BE496E40197F1F780911A0380
:100A900080620E94A90483E592E00197F1F78091BA
:100AA0001A0380620E94A904D0CF90911E03891777
:100AB00010F08FEF890FE82FF0E0E55FFC4F84899D
:100AC00080680C94A90441E00E94560481E090E003
:100AD0000895FC0101900020E9F73197AF01481B10
:100AE000590BBC018BE093E00C948E00CF93DF9305
:100AF000EC018091050390910603009759F0209135
:100B00000703309108032C173D0720F081E0DF91A7
:100B1000CF910895BE016F5F7F4F0E94F20A009748
:100B200089F09093060380930503D0930803C09344
:100B300007032091090330910A03232B39F7FC01A5
:100B40001082E4CF80E0E3CF2091090330910A03C3
:100B5000232B39F421E0FC018081882361F020E01F
:100B60000AC0BC0180910503909106030E94B80B56
:100B700021E0892BA1F7822F08951F920F920FB6C3
:100B80000F9211242F933F934F935F936F937F9313
:100B90008F939F93AF93BF93EF93FF9380915C02EA
:100BA00090915D02A0915E02B0915F02892B8A2B29
:100BB0008B2BD1F190915702E0915802F09159029C
:100BC00080818927808380915C0290915D02A09151
:100BD0005E02B0915F02181619061A061B069CF4F5
:100BE00080915C0290915D02A0915E02B0915F02E3
:100BF0000197A109B10980935C0290935D02A093D3
:100C00005E02B0935F02FF91EF91BF91AF919F9110
:100C10008F917F916F915F914F913F912F910F90A5
:100C20000FBE0F901F901895809100010E94160230
:100C3000EACF1F920F920FB60F9211242F933F937A
:100C40004F935F936F937F938F939F93AF93BF93D4
:100C5000EF93FF9388E692E00E940C01FF91EF91E1
:100C6000BF91AF919F918F917F916F915F914F91C4
:100C70003F912F910F900FBE0F901F9018951F92CC
:100C80000F920FB60F9211242F938F939F93EF9390
:100C9000FF93E0917802F09179028081E0917E02E9
:100CA000F0917F0282FD1BC09081809181028F5F55
:100CB0008F7320918202821741F0E0918102F0E06F
:100CC000E859FD4F958F80938102FF91EF919F919D
:100CD0008F912F910F900FBE0F901F9018958081CC
:100CE000F4CF1F920F920FB60F9211242F933F93C0
:100CF0008F939F93AF93BF9380914F029091500237
:100D0000A0915102B091520230914E0223E0230F84
:100D10002D3758F50196A11DB11D20934E028093E9
:100D20004F0290935002A0935102B09352028091CF
:100D3000530290915402A0915502B091560201962F
:100D4000A11DB11D8093530290935402A0935502AC
:100D5000B0935602BF91AF919F918F913F912F9188
:100D60000F900FBE0F901F90189526E8230F029644
:100D7000A11DB11DD2CF10926B0210926A0288EEB3
:100D800093E0A0E0B0E080936C0290936D02A0939A
:100D90006E02B0936F028BE091E0909369028093B2
:100DA000680285EC90E0909375028093740284EC65
:100DB00090E0909377028093760280EC90E090939D
:100DC00079028093780281EC90E090937B0280938B
:100DD0007A0282EC90E090937D0280937C0286EC14
:100DE00090E090937F0280937E0210928102109295
:100DF0008202109283021092840210920E031092CB
:100E00000D038DE191E090930C0380930B038EE032
:100E100080930F038FEF809310038FE08093110373
:100E200080E18093120381E18093130382E1809338
:100E3000140383E180931503109216031092170395
:100E4000109218031092190310921A0381E00E9465
:100E5000AF0410920603109205031092080310923B
:100E6000070310920A031092090390E080E00E94A9
:100E700076052091050330910603811113C02115D9
:100E8000310519F0C9010E94690A109206031092F7
:100E9000050310920A03109209031092080310929E
:100EA0000703089510920A031092090367E271E0A4
:100EB000C9010C94C10BCF93DF9300D0CDB7DEB73F
:100EC000789484B5826084BD84B5816084BD85B525
:100ED000826085BD85B5816085BD80916E00816031
:100EE00080936E00109281008091810082608093D7
:100EF00081008091810081608093810080918000D9
:100F00008160809380008091B10084608093B10003
:100F10008091B00081608093B00080917A008460FD
:100F200080937A0080917A00826080937A00809129
:100F30007A00816080937A0080917A008068809343
:100F40007A001092C100E0917802F091790282E07B
:100F50008083E0917402F09175021082E091760234
:100F6000F09177028FEC808310928002E0917C02F6
:100F7000F0917D0286E08083E0917A02F0917B021D
:100F8000808180618083E0917A02F0917B02808190
:100F900088608083E0917A02F0917B028081806892
:100FA0008083E0917A02F0917B0280818F7D808343
:100FB00082E00E94AF0412E061E0812F0E944202B1
:100FC0001F5F1730C9F761E089E00E94420261E0CB
:100FD0008AE00E94420260E087E00E94420280E0D4
:100FE000E82E80E0F82E88E692E00E94EC00892B43
:100FF00059F163E070E080E090E00E94DD0388E654
:1010000092E00E94CA0089831A820091090310911C
:101010000A030F5F1F4FC8010E947605882319F34A
:1010200020910503309106038091090390910A03F2
:10103000BE016F5F7F4F820F931F0E94C10B109301
:101040000A0300930903CFCF4091090350910A038B
:101050004115510509F43EC06091050370910603E6
:1010600088E692E00E948E0042E050E065E271E086
:1010700088E692E00E948E0088E291E00E94A4053A
:1010800061E0811108C08AE391E00E94A4058823F1
:1010900009F456C060E084E00E94E80190E080E03E
:1010A0000E94760520910503309106038111D0C07E
:1010B0002115310519F0C9010E94690A1092060331
:1010C0001092050310920A0310920903109208036C
:1010D000109207030E94C401019709F0C3C080E089
:1010E0000E9455058DE192E00E94690581E00E9411
:1010F00055058AE292E00E94690584EF91E00E9422
:10110000730264EF71E080E090E00E94DD0380E90B
:1011100091E00E94730264EF71E080E090E00E9431
:10112000DD038AE00E941602E114F10409F45BCFAA
:101130000E94F800882309F456CF0E94000053CF84
:101140008BE491E00E94A40561E0811107C08DE568
:1011500091E00E94A405882319F060E083E09CCF11
:101160008EE691E00E94A40561E0811107C080E84D
:1011700091E00E94A405882319F060E082E08CCF02
:1011800081E991E00E94A40561E0811107C088EA2D
:1011900091E00E94A405882319F060E086E07CCFEE
:1011A0008EEB91E00E94A405882319F061E089E0AC
:1011B00073CF85ED91E00E94A405882311F060E0D3
:1011C000F6CF8BEE91E00E94A40561E0811107C08B
:1011D0008DEF91E00E94A405882319F060E085E07E
:1011E0005BCF8EE092E00E94A4058823A9F061E025
:1011F00082E00E94E80161E083E00E94E80161E092
:1012000084E00E94E80161E085E00E94E80161E07D
:1012100086E00E94E801CACF85E192E00E94A40521
:10122000882309F43BCF60E082E00E94E80160E09F
:1012300083E00E94E80160E084E00E94E80160E051
:1012400085E00E94E80160E086E00E94E801B7CFF7
:1012500010920A031092090367E271E0C9010E942B
:10126000C10B38CF0E94C401892B09F05DCF80E00B
:101270000E94550583E392E00E94690581E00E9487
:10128000550584E492E00E9469054ECF80910503E4
:1012900090910603009711F00C94690A08952F921B
:1012A0003F924F925F926F927F928F929F92AF92F6
:1012B000BF92CF92DF92EF92FF920F931F93CF9343
:1012C000DF93CDB7DEB7CA1BDB0B0FB6F894DEBFDA
:1012D0000FBECDBF09942A88398848885F846E8400
:1012E0007D848C849B84AA84B984C884DF80EE804A
:1012F000FD800C811B81AA81B981CE0FD11D0FB653
:10130000F894DEBF0FBECDBFED010895052E97FB0B
:101310001EF400940E949D0957FD07D00E94A50964
:1013200007FC03D04EF40C949D09509540953095E0
:1013300021953F4F4F4F5F4F089590958095709541
:1013400061957F4F8F4F9F4F0895A1E21A2EAA1BE0
:10135000BB1BFD010DC0AA1FBB1FEE1FFF1FA21765
:10136000B307E407F50720F0A21BB30BE40BF50B62
:10137000661F771F881F991F1A9469F760957095EB
:10138000809590959B01AC01BD01CF010895EE0FB2
:10139000FF1F0590F491E02D09940F931F93CF93B5
:1013A000DF938230910510F482E090E0E091250314
:1013B000F091260330E020E0B0E0A0E0309799F40F
:1013C0002115310509F44AC0281B390B2430310599
:1013D000D8F58A819B816115710589F1FB019383A1
:1013E0008283FE0111C0408151810281138148171F
:1013F0005907E0F04817590799F4109761F01296D1
:101400000C93129713961C933296CF01DF91CF91D4
:101410001F910F9108950093250310932603F4CF95
:101420002115310551F04217530738F0A901DB01AE
:101430009A01BD01DF01F801C1CFEF01F9CF90930F
:10144000260380932503CDCFFE01E20FF31F819386
:1014500091932250310939832883D7CF20912303D8
:1014600030912403232B41F4209103013091040196
:101470003093240320932303209101013091020132
:101480002115310541F42DB73EB74091050150912A
:101490000601241B350BE0912303F0912403E2178E
:1014A000F307A0F42E1B3F0B2817390778F0AC0187
:1014B0004E5F5F4F2417350748F04E0F5F1F509364
:1014C000240340932303819391939FCFF0E0E0E0C6
:1014D0009CCFCF93DF930097E9F0FC013297138202
:1014E0001282A0912503B0912603ED0130E020E0A7
:1014F0001097A1F420813181820F931F2091230343
:10150000309124032817390709F061C0F0932403B0
:10151000E0932303DF91CF910895EA01CE17DF070F
:10152000E8F54A815B819E0141155105B1F7E9015A
:10153000FB83EA8349915991C40FD51FEC17FD072E
:1015400061F4808191810296840F951FE90199834E
:101550008883828193819B838A83F0E0E0E0129606
:101560008D919C9113970097B9F52D913C9111970E
:10157000CD010296820F931F209123033091240303
:101580002817390739F6309751F510922603109233
:101590002503B0932403A0932303BCCFD383C2833A
:1015A00040815181840F951FC817D90761F44E5FA0
:1015B0005F4F88819981480F591F518340838A81E9
:1015C0009B81938382832115310509F0B0CFF0937D
:1015D0002603E09325039ECFFD01DC01C0CF1382DB
:1015E0001282D7CFB0E0A0E0E8EFFAE00C94510906
:1015F0008C01009751F4CB010E94CD098C01C801E8
:10160000CDB7DEB7E0E10C946D09FC01E60FF71FE2
:101610009C0122503109E217F30708F49DC0D9015B
:10162000CD91DC911197C617D70798F0C530D10539
:1016300030F3CE0104978617970708F3C61BD70B24
:101640002297C193D1936D937C93CF010E94690A35
:10165000D6CF5B01AC1ABD0A4C018C0E9D1EA09129
:101660002503B0912603512C412CF12CE12C10972D
:1016700031F580912303909124038815990509F091
:101680005CC04616570608F058C080910101909141
:101690000201009741F48DB79EB74091050150912A
:1016A0000601841B950BE817F90708F055C0F09365
:1016B0002403E0932303F90171836083A0CF8D910C
:1016C0009C91119712966C90129713967C90139799
:1016D000A815B90559F56C0142E0C40ED11CCA1415
:1016E000DB0420F1AC014A195B09DA011296159767
:1016F00080F06282738251834083D9016D937C9321
:10170000E114F10471F0D7011396FC93EE93129754
:1017100076CF22968C0F9D1FF90191838083F30170
:10172000EFCFF0932603E093250369CF48165906BF
:1017300008F42C017D01D3019ACFCB010E94CD0981
:101740007C01009749F0AE01B8010E94AF0BC801BF
:101750000E94690A870153CF10E000E050CFFB01DF
:10176000DC0102C001900D9241505040D8F708951D
:10177000FB01DC018D91019080190110D9F3990BC7
:101780000895FB01DC0101900D920020E1F708951E
:1017900010E0C3E6D0E004C0FE010E94C709219614
:0A17A000C436D107C9F7F894FFCF53
:1017AA00FF000027038000000000002E018E00BB0E
:1017BA00007B01EC00CA00DE000000000063058E19
:1017CA000010040F040D0A006C616D7075206B61C6
:1017DA006D6172206E79616C61006C616D7075204B
:1017EA006B616D6172206D617469006B6970617300
:1017FA00206B616D6172206E79616C61006B69703A
:10180A006173206B616D6172206D617469006C6136
:10181A006D7075207469647572206E79616C6100EF
:10182A006C616D7075207469647572206D6174697C
:10183A00006C616D7075207275616E672074616DE0
:10184A0075206E79616C61006C616D7075207275BE
:10185A00616E672074616D75206D617469006B69D2
:10186A00706173207275616E672074616D75206E88
:10187A0079616C61006B69706173207275616E6762
:10188A002074616D75206D617469006C616D70758D
:10189A00206461707572206E79616C61006C616D93
:1018AA007075206461707572206D61746900616C75
:1018BA006C206F6E00616C6C206F66660047415346
:1018CA0020444554454354454400414C41524D201F
:1018DA004F4E00474153204E4F54204445544543F0
:0E18EA0054454400414C41524D204F464600AB
:00000001FF
